{
  "contractName": "Whitelist",
  "abi": [
    {
      "inputs": [],
      "stateMutability": "nonpayable",
      "type": "constructor"
    },
    {
      "inputs": [
        {
          "internalType": "address",
          "name": "_addresstoWhitelist",
          "type": "address"
        }
      ],
      "name": "addUser",
      "outputs": [],
      "stateMutability": "nonpayable",
      "type": "function"
    },
    {
      "inputs": [],
      "name": "exampleFunction",
      "outputs": [
        {
          "internalType": "bool",
          "name": "",
          "type": "bool"
        }
      ],
      "stateMutability": "view",
      "type": "function",
      "constant": true
    },
    {
      "inputs": [
        {
          "internalType": "address",
          "name": "_whitelistedAddress",
          "type": "address"
        }
      ],
      "name": "verifyUser",
      "outputs": [
        {
          "internalType": "bool",
          "name": "",
          "type": "bool"
        }
      ],
      "stateMutability": "view",
      "type": "function",
      "constant": true
    }
  ],
  "bytecode": "0x608060405234801561001057600080fd5b50336000806101000a81548173ffffffffffffffffffffffffffffffffffffffff021916908373ffffffffffffffffffffffffffffffffffffffff160217905550610495806100606000396000f3fe608060405234801561001057600080fd5b50600436106100415760003560e01c8063421b2d8b146100465780634d81312014610062578063ce2f67a214610092575b600080fd5b610060600480360381019061005b91906102ed565b6100b0565b005b61007c600480360381019061007791906102ed565b610198565b6040516100899190610335565b60405180910390f35b61009a6101f3565b6040516100a79190610335565b60405180910390f35b60008054906101000a900473ffffffffffffffffffffffffffffffffffffffff1673ffffffffffffffffffffffffffffffffffffffff163373ffffffffffffffffffffffffffffffffffffffff161461013e576040517f08c379a0000000000000000000000000000000000000000000000000000000008152600401610135906103ad565b60405180910390fd5b60018060008373ffffffffffffffffffffffffffffffffffffffff1673ffffffffffffffffffffffffffffffffffffffff16815260200190815260200160002060006101000a81548160ff02191690831515021790555050565b600080600160008473ffffffffffffffffffffffffffffffffffffffff1673ffffffffffffffffffffffffffffffffffffffff16815260200190815260200160002060009054906101000a900460ff16905080915050919050565b600033600160008273ffffffffffffffffffffffffffffffffffffffff1673ffffffffffffffffffffffffffffffffffffffff16815260200190815260200160002060009054906101000a900460ff16610282576040517f08c379a00000000000000000000000000000000000000000000000000000000081526004016102799061043f565b60405180910390fd5b600191505090565b600080fd5b600073ffffffffffffffffffffffffffffffffffffffff82169050919050565b60006102ba8261028f565b9050919050565b6102ca816102af565b81146102d557600080fd5b50565b6000813590506102e7816102c1565b92915050565b6000602082840312156103035761030261028a565b5b6000610311848285016102d8565b91505092915050565b60008115159050919050565b61032f8161031a565b82525050565b600060208201905061034a6000830184610326565b92915050565b600082825260208201905092915050565b7f4f206368616d61646f72206e616f206568206f2070726f70726965746172696f600082015250565b6000610397602083610350565b91506103a282610361565b602082019050919050565b600060208201905081810360008301526103c68161038a565b9050919050565b7f566f63652070726563697361206573746172206e61206c69737461206465207060008201527f65726d6973736f65730000000000000000000000000000000000000000000000602082015250565b6000610429602983610350565b9150610434826103cd565b604082019050919050565b600060208201905081810360008301526104588161041c565b905091905056fea26469706673582212206a4d5975ad1c9e5b15b19ac9b51c4a5e3a2b072d96310c74613a40a69be9669264736f6c634300080d0033",
  "immutableReferences": {},
  "source": "// SPDX-License-Identifier: GPL-3.0\npragma solidity >=0.7.0 <0.9.0;\n\ncontract Whitelist {\n    address owner; // varivel que conter o endereo do implementador do contrato\n\n    constructor(){\n        owner = msg.sender; // definindo o proprietrio do implementador do contrato\n    }\n\n    modifier onlyOwner() {\n        //require(msg.sender == owner);\n        require(msg.sender == owner, \"O chamador nao eh o proprietario\");\n        _;\n    }\n\n    modifier isWhitelisted(address _address){//Modificador pra verificar se o endereo consta na lista branca\n        require(whitelistedAddresses[_address], \"Voce precisa estar na lista de permissoes\");\n        _;\n    }\n\n    mapping(address => bool) whitelistedAddresses; //lista de endereos, para armazenar os mesmos, fazer um mapeamento para verificar se o endereo consta na lista\n\n    function addUser(address _addresstoWhitelist) public onlyOwner {// Funo para adicionar um novo endereo na lista, mudando seu status pra true\n        whitelistedAddresses[_addresstoWhitelist] = true; //true = permitido //false = no permitido  \n    }\n\n    function exampleFunction() public view isWhitelisted(msg.sender) returns (bool) {\n        return true;\n    }\n\n    function verifyUser(address _whitelistedAddress) public view returns(bool){//Funo que verifica se o endereo consta na lista branca\n        bool userIsWhitelisted = whitelistedAddresses[_whitelistedAddress];\n        return userIsWhitelisted;\n    }\n\n\n}",
  "sourcePath": "/home/filipanselmo/Documentos/git/Vue-js/whitelist-dapp/contracts/Whitelist.sol",
  "compiler": {
    "name": "solc",
    "version": "0.8.13+commit.abaa5c0e.Emscripten.clang"
  },
  "schemaVersion": "3.4.6",
  "updatedAt": "2022-04-01T03:17:12.884Z",
  "networkType": "ethereum",
  "devdoc": {
    "kind": "dev",
    "methods": {},
    "version": 1
  },
  "userdoc": {
    "kind": "user",
    "methods": {},
    "version": 1
  }
}