{
  "contractName": "Whitelist",
  "abi": [
    {
      "inputs": [],
      "stateMutability": "nonpayable",
      "type": "constructor"
    },
    {
      "inputs": [
        {
          "internalType": "address",
          "name": "_addresstoWhitelist",
          "type": "address"
        }
      ],
      "name": "addUser",
      "outputs": [],
      "stateMutability": "nonpayable",
      "type": "function"
    },
    {
      "inputs": [
        {
          "internalType": "address",
          "name": "_whitelistedAddress",
          "type": "address"
        }
      ],
      "name": "verifyUser",
      "outputs": [
        {
          "internalType": "bool",
          "name": "",
          "type": "bool"
        }
      ],
      "stateMutability": "view",
      "type": "function"
    }
  ],
  "bytecode": "0x608060405234801561001057600080fd5b50336000806101000a81548173ffffffffffffffffffffffffffffffffffffffff021916908373ffffffffffffffffffffffffffffffffffffffff160217905550610464806100606000396000f3fe608060405234801561001057600080fd5b50600436106100365760003560e01c8063421b2d8b1461003b5780634d81312014610057575b600080fd5b610055600480360381019061005091906102bc565b610087565b005b610071600480360381019061006c91906102bc565b61016f565b60405161007e9190610304565b60405180910390f35b60008054906101000a900473ffffffffffffffffffffffffffffffffffffffff1673ffffffffffffffffffffffffffffffffffffffff163373ffffffffffffffffffffffffffffffffffffffff1614610115576040517f08c379a000000000000000000000000000000000000000000000000000000000815260040161010c9061037c565b60405180910390fd5b60018060008373ffffffffffffffffffffffffffffffffffffffff1673ffffffffffffffffffffffffffffffffffffffff16815260200190815260200160002060006101000a81548160ff02191690831515021790555050565b600033600160008273ffffffffffffffffffffffffffffffffffffffff1673ffffffffffffffffffffffffffffffffffffffff16815260200190815260200160002060009054906101000a900460ff166101fe576040517f08c379a00000000000000000000000000000000000000000000000000000000081526004016101f59061040e565b60405180910390fd5b6000600160008573ffffffffffffffffffffffffffffffffffffffff1673ffffffffffffffffffffffffffffffffffffffff16815260200190815260200160002060009054906101000a900460ff1690508092505050919050565b600080fd5b600073ffffffffffffffffffffffffffffffffffffffff82169050919050565b60006102898261025e565b9050919050565b6102998161027e565b81146102a457600080fd5b50565b6000813590506102b681610290565b92915050565b6000602082840312156102d2576102d1610259565b5b60006102e0848285016102a7565b91505092915050565b60008115159050919050565b6102fe816102e9565b82525050565b600060208201905061031960008301846102f5565b92915050565b600082825260208201905092915050565b7f4f206368616d61646f72206e616f206568206f2070726f70726965746172696f600082015250565b600061036660208361031f565b915061037182610330565b602082019050919050565b6000602082019050818103600083015261039581610359565b9050919050565b7f566f63652070726563697361206573746172206e61206c69737461206465207060008201527f65726d6973736f65730000000000000000000000000000000000000000000000602082015250565b60006103f860298361031f565b91506104038261039c565b604082019050919050565b60006020820190508181036000830152610427816103eb565b905091905056fea2646970667358221220752357df9ba939de0713d277bc799c2af1951a2338134e8e1692c722aab2d23664736f6c634300080d0033",
  "immutableReferences": {},
  "source": "// SPDX-License-Identifier: GPL-3.0\npragma solidity >=0.7.0 <0.9.0;\n\ncontract Whitelist {\n    address owner; // varivel que conter o endereo do implementador do contrato\n\n    constructor(){\n        owner = msg.sender; // definindo o proprietrio do implementador do contrato\n    }\n\n    modifier onlyOwner() {\n        //require(msg.sender == owner);\n        require(msg.sender == owner, \"O chamador nao eh o proprietario\");\n        _;\n    }\n\n    modifier isWhitelisted(address _address){//Modificador pra verificar se o endereo consta na lista branca\n        require(whitelistedAddresses[_address], \"Voce precisa estar na lista de permissoes\");\n        _;\n    }\n\n    mapping(address => bool) whitelistedAddresses; //lista de endereos, para armazenar os mesmos, fazer um mapeamento para verificar se o endereo consta na lista\n\n    function addUser(address _addresstoWhitelist) public onlyOwner {// Funo para adicionar um novo endereo na lista, mudando seu status pra true\n        whitelistedAddresses[_addresstoWhitelist] = true; //true = permitido //false = no permitido  \n    }\n\n    function verifyUser(address _whitelistedAddress) isWhitelisted(msg.sender) public view returns(bool){//Funo que verifica se o endereo consta na lista branca\n        bool userIsWhitelisted = whitelistedAddresses[_whitelistedAddress];\n        return userIsWhitelisted;\n    }\n\n\n}",
  "sourcePath": "/home/filipanselmo/Documentos/git/Vue-js/whitelist-dapp/contracts/Whitelist.sol",
  "compiler": {
    "name": "solc",
    "version": "0.8.13+commit.abaa5c0e.Emscripten.clang"
  },
  "schemaVersion": "3.4.6",
  "updatedAt": "2022-04-02T03:26:04.406Z",
  "devdoc": {
    "kind": "dev",
    "methods": {},
    "version": 1
  },
  "userdoc": {
    "kind": "user",
    "methods": {},
    "version": 1
  }
}